{
  "_format": "hh-sol-artifact-1",
  "contractName": "TokenLaunchpad",
  "sourceName": "contracts/TokenLaunchpad.json",
  "abi": [
    {
      "inputs": [
        {
          "internalType": "address",
          "name": "_factoryAddress",
          "type": "address"
        }
      ],
      "stateMutability": "nonpayable",
      "type": "constructor"
    },
    {
      "anonymous": false,
      "inputs": [
        {
          "indexed": true,
          "internalType": "address",
          "name": "tokenAddress",
          "type": "address"
        },
        {
          "indexed": false,
          "internalType": "string",
          "name": "name",
          "type": "string"
        },
        {
          "indexed": false,
          "internalType": "string",
          "name": "symbol",
          "type": "string"
        }
      ],
      "name": "TokenCreated",
      "type": "event"
    },
    {
      "inputs": [
        {
          "internalType": "address",
          "name": "tokenAddress",
          "type": "address"
        },
        {
          "internalType": "uint256",
          "name": "amount",
          "type": "uint256"
        }
      ],
      "name": "buyToken",
      "outputs": [],
      "stateMutability": "payable",
      "type": "function"
    },
    {
      "inputs": [
        {
          "internalType": "string",
          "name": "name",
          "type": "string"
        },
        {
          "internalType": "string",
          "name": "symbol",
          "type": "string"
        }
      ],
      "name": "createToken",
      "outputs": [
        {
          "internalType": "address",
          "name": "",
          "type": "address"
        }
      ],
      "stateMutability": "nonpayable",
      "type": "function"
    },
    {
      "inputs": [],
      "name": "erc20ForSplFactory",
      "outputs": [
        {
          "internalType": "contract IERC20ForSplFactory",
          "name": "",
          "type": "address"
        }
      ],
      "stateMutability": "view",
      "type": "function"
    },
    {
      "inputs": [],
      "name": "factoryAddress",
      "outputs": [
        {
          "internalType": "address",
          "name": "",
          "type": "address"
        }
      ],
      "stateMutability": "view",
      "type": "function"
    },
    {
      "inputs": [
        {
          "internalType": "address",
          "name": "tokenAddress",
          "type": "address"
        }
      ],
      "name": "getTokenPrice",
      "outputs": [
        {
          "internalType": "uint256",
          "name": "",
          "type": "uint256"
        }
      ],
      "stateMutability": "view",
      "type": "function"
    },
    {
      "inputs": [
        {
          "internalType": "address",
          "name": "tokenAddress",
          "type": "address"
        },
        {
          "internalType": "uint256",
          "name": "amount",
          "type": "uint256"
        }
      ],
      "name": "sellToken",
      "outputs": [],
      "stateMutability": "nonpayable",
      "type": "function"
    },
    {
      "inputs": [
        {
          "internalType": "address",
          "name": "",
          "type": "address"
        }
      ],
      "name": "tokenPrices",
      "outputs": [
        {
          "internalType": "uint256",
          "name": "",
          "type": "uint256"
        }
      ],
      "stateMutability": "view",
      "type": "function"
    },
    {
      "inputs": [
        {
          "internalType": "address",
          "name": "",
          "type": "address"
        }
      ],
      "name": "tokens",
      "outputs": [
        {
          "internalType": "address",
          "name": "",
          "type": "address"
        }
      ],
      "stateMutability": "view",
      "type": "function"
    }
  ],
  "bytecode": "0x608060405234801561001057600080fd5b50604051610c90380380610c9083398101604081905261002f9161005e565b600180546001600160a01b039092166001600160a01b031992831681179091556000805490921617905561008c565b60006020828403121561006f578081fd5b81516001600160a01b0381168114610085578182fd5b9392505050565b610bf58061009b6000396000f3fe60806040526004361061007b5760003560e01c8063966dae0e1161004e578063966dae0e1461012d578063d02641a01461014d578063e486033914610183578063f464e7db146101b957600080fd5b8063204120bc146100805780632d67bb40146100c05780632f2f2d56146100f857806368f8fc1014610118575b600080fd5b34801561008c57600080fd5b506100ad61009b366004610839565b60026020526000908152604090205481565b6040519081526020015b60405180910390f35b3480156100cc57600080fd5b506000546100e0906001600160a01b031681565b6040516001600160a01b0390911681526020016100b7565b34801561010457600080fd5b506100e06101133660046108c3565b6101d9565b61012b610126366004610878565b610374565b005b34801561013957600080fd5b506001546100e0906001600160a01b031681565b34801561015957600080fd5b506100ad610168366004610839565b6001600160a01b031660009081526002602052604090205490565b34801561018f57600080fd5b506100e061019e366004610839565b6003602052600090815260409020546001600160a01b031681565b3480156101c557600080fd5b5061012b6101d4366004610878565b6105b7565b60008054604051633f392f4b60e21b8152601291309184916001600160a01b03169063fce4bd2c906102159089908990889088906004016109b5565b602060405180830381600087803b15801561022f57600080fd5b505af1158015610243573d6000803e3d6000fd5b505050506040513d601f19601f82011682018060405250810190610267919061085c565b9050806000610277600a86610b58565b6102859060ff16600a610a7a565b61029390633b9aca00610b22565b6040516340c10f1960e01b8152306004820152602481018290529091506001600160a01b038316906340c10f1990604401600060405180830381600087803b1580156102de57600080fd5b505af11580156102f2573d6000803e3d6000fd5b505050506001600160a01b038316600081815260036020908152604080832080546001600160a01b0319168517905560029091529081902060649055517fffc04f682c7b287e4b552dacd4b833d7c33dc0549cd6da84388408e4830c05629061035e908b908b90610987565b60405180910390a2509093505050505b92915050565b6001600160a01b038216600090815260026020526040812054670de0b6b3a7640000906103a2908490610b22565b6103ac9190610a17565b9050803410156104035760405162461bcd60e51b815260206004820152601760248201527f496e73756666696369656e742045746865722073656e7400000000000000000060448201526064015b60405180910390fd5b6040516370a0823160e01b8152306004820152839083906001600160a01b038316906370a082319060240160206040518083038186803b15801561044657600080fd5b505afa15801561045a573d6000803e3d6000fd5b505050506040513d601f19601f8201168201806040525081019061047e9190610924565b10156104cc5760405162461bcd60e51b815260206004820152601b60248201527f4e6f7420656e6f75676820746f6b656e7320617661696c61626c65000000000060448201526064016103fa565b60405163a9059cbb60e01b8152336004820152602481018490526001600160a01b0382169063a9059cbb90604401602060405180830381600087803b15801561051457600080fd5b505af1158015610528573d6000803e3d6000fd5b505050506040513d601f19601f8201168201806040525081019061054c91906108a3565b506001600160a01b03841660009081526002602052604090205461057290606490610a17565b6001600160a01b03851660009081526002602052604090205461059591906109ff565b6001600160a01b03909416600090815260026020526040902093909355505050565b6040516370a0823160e01b8152336004820152829082906001600160a01b038316906370a082319060240160206040518083038186803b1580156105fa57600080fd5b505afa15801561060e573d6000803e3d6000fd5b505050506040513d601f19601f820116820180604052508101906106329190610924565b10156106805760405162461bcd60e51b815260206004820152601a60248201527f496e73756666696369656e7420746f6b656e2062616c616e636500000000000060448201526064016103fa565b6001600160a01b038316600090815260026020526040812054670de0b6b3a7640000906106ae908590610b22565b6106b89190610a17565b60405163a9059cbb60e01b8152306004820152602481018590529091506001600160a01b0383169063a9059cbb90604401602060405180830381600087803b15801561070357600080fd5b505af1158015610717573d6000803e3d6000fd5b505050506040513d601f19601f8201168201806040525081019061073b91906108a3565b50604051339082156108fc029083906000818181858888f19350505050158015610769573d6000803e3d6000fd5b506001600160a01b03841660009081526002602052604090205461078f90606490610a17565b6001600160a01b0385166000908152600260205260409020546105959190610b41565b600082601f8301126107c2578081fd5b813567ffffffffffffffff808211156107dd576107dd610b91565b604051601f8301601f19908116603f0116810190828211818310171561080557610805610b91565b8160405283815286602085880101111561081d578485fd5b8360208701602083013792830160200193909352509392505050565b60006020828403121561084a578081fd5b813561085581610ba7565b9392505050565b60006020828403121561086d578081fd5b815161085581610ba7565b6000806040838503121561088a578081fd5b823561089581610ba7565b946020939093013593505050565b6000602082840312156108b4578081fd5b81518015158114610855578182fd5b600080604083850312156108d5578182fd5b823567ffffffffffffffff808211156108ec578384fd5b6108f8868387016107b2565b9350602085013591508082111561090d578283fd5b5061091a858286016107b2565b9150509250929050565b600060208284031215610935578081fd5b5051919050565b60008151808452815b8181101561096157602081850181015186830182015201610945565b818111156109725782602083870101525b50601f01601f19169290920160200192915050565b60408152600061099a604083018561093c565b82810360208401526109ac818561093c565b95945050505050565b6080815260006109c8608083018761093c565b82810360208401526109da818761093c565b60ff95909516604084015250506001600160a01b039190911660609091015292915050565b60008219821115610a1257610a12610b7b565b500190565b600082610a3257634e487b7160e01b81526012600452602481fd5b500490565b600181815b80851115610a72578160001904821115610a5857610a58610b7b565b80851615610a6557918102915b93841c9390800290610a3c565b509250929050565b60006108558383600082610a905750600161036e565b81610a9d5750600061036e565b8160018114610ab35760028114610abd57610ad9565b600191505061036e565b60ff841115610ace57610ace610b7b565b50506001821b61036e565b5060208310610133831016604e8410600b8410161715610afc575081810a61036e565b610b068383610a37565b8060001904821115610b1a57610b1a610b7b565b029392505050565b6000816000190483118215151615610b3c57610b3c610b7b565b500290565b600082821015610b5357610b53610b7b565b500390565b600060ff821660ff841680821015610b7257610b72610b7b565b90039392505050565b634e487b7160e01b600052601160045260246000fd5b634e487b7160e01b600052604160045260246000fd5b6001600160a01b0381168114610bbc57600080fd5b5056fea26469706673582212207ec4dfdfe81f5c3e6b00c548f8415b686890f96860ede763c34feca4a48af4aa64736f6c63430008040033",
  "linkReferences": {},
  "deployedLinkReferences": {}
}